{
  "contractName": "StarNotary",
  "abi": [
    {
      "constant": true,
      "inputs": [
        {
          "name": "interfaceId",
          "type": "bytes4"
        }
      ],
      "name": "supportsInterface",
      "outputs": [
        {
          "name": "",
          "type": "bool"
        }
      ],
      "payable": false,
      "stateMutability": "view",
      "type": "function"
    },
    {
      "constant": true,
      "inputs": [
        {
          "name": "",
          "type": "uint256"
        }
      ],
      "name": "starsForSale",
      "outputs": [
        {
          "name": "",
          "type": "uint256"
        }
      ],
      "payable": false,
      "stateMutability": "view",
      "type": "function"
    },
    {
      "constant": true,
      "inputs": [
        {
          "name": "tokenId",
          "type": "uint256"
        }
      ],
      "name": "getApproved",
      "outputs": [
        {
          "name": "",
          "type": "address"
        }
      ],
      "payable": false,
      "stateMutability": "view",
      "type": "function"
    },
    {
      "constant": false,
      "inputs": [
        {
          "name": "to",
          "type": "address"
        },
        {
          "name": "tokenId",
          "type": "uint256"
        }
      ],
      "name": "approve",
      "outputs": [],
      "payable": false,
      "stateMutability": "nonpayable",
      "type": "function"
    },
    {
      "constant": true,
      "inputs": [
        {
          "name": "",
          "type": "uint256"
        }
      ],
      "name": "tokenIdToStarInfo",
      "outputs": [
        {
          "name": "name",
          "type": "string"
        },
        {
          "name": "story",
          "type": "string"
        },
        {
          "components": [
            {
              "name": "dec",
              "type": "string"
            },
            {
              "name": "mag",
              "type": "string"
            },
            {
              "name": "cent",
              "type": "string"
            }
          ],
          "name": "coords",
          "type": "tuple"
        }
      ],
      "payable": false,
      "stateMutability": "view",
      "type": "function"
    },
    {
      "constant": false,
      "inputs": [
        {
          "name": "from",
          "type": "address"
        },
        {
          "name": "to",
          "type": "address"
        },
        {
          "name": "tokenId",
          "type": "uint256"
        }
      ],
      "name": "transferFrom",
      "outputs": [],
      "payable": false,
      "stateMutability": "nonpayable",
      "type": "function"
    },
    {
      "constant": false,
      "inputs": [
        {
          "name": "from",
          "type": "address"
        },
        {
          "name": "to",
          "type": "address"
        },
        {
          "name": "tokenId",
          "type": "uint256"
        }
      ],
      "name": "safeTransferFrom",
      "outputs": [],
      "payable": false,
      "stateMutability": "nonpayable",
      "type": "function"
    },
    {
      "constant": true,
      "inputs": [
        {
          "name": "tokenId",
          "type": "uint256"
        }
      ],
      "name": "ownerOf",
      "outputs": [
        {
          "name": "",
          "type": "address"
        }
      ],
      "payable": false,
      "stateMutability": "view",
      "type": "function"
    },
    {
      "constant": true,
      "inputs": [
        {
          "name": "owner",
          "type": "address"
        }
      ],
      "name": "balanceOf",
      "outputs": [
        {
          "name": "",
          "type": "uint256"
        }
      ],
      "payable": false,
      "stateMutability": "view",
      "type": "function"
    },
    {
      "constant": false,
      "inputs": [
        {
          "name": "to",
          "type": "address"
        },
        {
          "name": "approved",
          "type": "bool"
        }
      ],
      "name": "setApprovalForAll",
      "outputs": [],
      "payable": false,
      "stateMutability": "nonpayable",
      "type": "function"
    },
    {
      "constant": false,
      "inputs": [
        {
          "name": "from",
          "type": "address"
        },
        {
          "name": "to",
          "type": "address"
        },
        {
          "name": "tokenId",
          "type": "uint256"
        },
        {
          "name": "_data",
          "type": "bytes"
        }
      ],
      "name": "safeTransferFrom",
      "outputs": [],
      "payable": false,
      "stateMutability": "nonpayable",
      "type": "function"
    },
    {
      "constant": true,
      "inputs": [
        {
          "name": "",
          "type": "uint256"
        }
      ],
      "name": "allStars",
      "outputs": [
        {
          "name": "",
          "type": "uint256"
        }
      ],
      "payable": false,
      "stateMutability": "view",
      "type": "function"
    },
    {
      "constant": true,
      "inputs": [
        {
          "name": "owner",
          "type": "address"
        },
        {
          "name": "operator",
          "type": "address"
        }
      ],
      "name": "isApprovedForAll",
      "outputs": [
        {
          "name": "",
          "type": "bool"
        }
      ],
      "payable": false,
      "stateMutability": "view",
      "type": "function"
    },
    {
      "constant": true,
      "inputs": [
        {
          "name": "",
          "type": "uint256"
        }
      ],
      "name": "starsAvailable",
      "outputs": [
        {
          "name": "",
          "type": "uint256"
        }
      ],
      "payable": false,
      "stateMutability": "view",
      "type": "function"
    },
    {
      "anonymous": false,
      "inputs": [
        {
          "indexed": true,
          "name": "from",
          "type": "address"
        },
        {
          "indexed": true,
          "name": "to",
          "type": "address"
        },
        {
          "indexed": true,
          "name": "tokenId",
          "type": "uint256"
        }
      ],
      "name": "Transfer",
      "type": "event"
    },
    {
      "anonymous": false,
      "inputs": [
        {
          "indexed": true,
          "name": "owner",
          "type": "address"
        },
        {
          "indexed": true,
          "name": "approved",
          "type": "address"
        },
        {
          "indexed": true,
          "name": "tokenId",
          "type": "uint256"
        }
      ],
      "name": "Approval",
      "type": "event"
    },
    {
      "anonymous": false,
      "inputs": [
        {
          "indexed": true,
          "name": "owner",
          "type": "address"
        },
        {
          "indexed": true,
          "name": "operator",
          "type": "address"
        },
        {
          "indexed": false,
          "name": "approved",
          "type": "bool"
        }
      ],
      "name": "ApprovalForAll",
      "type": "event"
    },
    {
      "constant": false,
      "inputs": [
        {
          "name": "_name",
          "type": "string"
        },
        {
          "name": "_tokenId",
          "type": "uint256"
        },
        {
          "name": "dec",
          "type": "string"
        },
        {
          "name": "mag",
          "type": "string"
        },
        {
          "name": "cent",
          "type": "string"
        },
        {
          "name": "story",
          "type": "string"
        }
      ],
      "name": "createStar",
      "outputs": [],
      "payable": false,
      "stateMutability": "nonpayable",
      "type": "function"
    },
    {
      "constant": false,
      "inputs": [
        {
          "name": "_tokenId",
          "type": "uint256"
        },
        {
          "name": "_price",
          "type": "uint256"
        }
      ],
      "name": "putStarUpForSale",
      "outputs": [],
      "payable": false,
      "stateMutability": "nonpayable",
      "type": "function"
    },
    {
      "constant": false,
      "inputs": [
        {
          "name": "_tokenId",
          "type": "uint256"
        }
      ],
      "name": "buyStar",
      "outputs": [],
      "payable": true,
      "stateMutability": "payable",
      "type": "function"
    }
  ],
  "bytecode": "0x608060405261003f6301ffc9a77c01000000000000000000000000000000000000000000000000000000000261007f640100000000026401000000009004565b61007a6380ac58cd7c01000000000000000000000000000000000000000000000000000000000261007f640100000000026401000000009004565b61013c565b63ffffffff7c010000000000000000000000000000000000000000000000000000000002817bffffffffffffffffffffffffffffffffffffffffffffffffffffffff1916141515156100d057600080fd5b6001600080837bffffffffffffffffffffffffffffffffffffffffffffffffffffffff19167bffffffffffffffffffffffffffffffffffffffffffffffffffffffff1916815260200190815260200160002060006101000a81548160ff02191690831515021790555050565b6122cc806200014c6000396000f3006080604052600436106100f1576000357c0100000000000000000000000000000000000000000000000000000000900463ffffffff16806301ffc9a7146100f65780630564b1301461015a578063081812fc1461019b578063095ea7b3146102085780631967fd981461025557806323b872dd1461036e5780632f1c34ef146103db578063316a4361146103fb57806342842e0e146104325780636352211e1461049f57806370a082311461050c5780638583d57c14610563578063a22cb465146106ee578063b88d4fde1461073d578063c2ce25ca146107f0578063e985e9c514610831578063eee3e951146108ac575b600080fd5b34801561010257600080fd5b5061014060048036038101908080357bffffffffffffffffffffffffffffffffffffffffffffffffffffffff191690602001909291905050506108ed565b604051808215151515815260200191505060405180910390f35b34801561016657600080fd5b5061018560048036038101908080359060200190929190505050610954565b6040518082815260200191505060405180910390f35b3480156101a757600080fd5b506101c66004803603810190808035906020019092919050505061096c565b604051808273ffffffffffffffffffffffffffffffffffffffff1673ffffffffffffffffffffffffffffffffffffffff16815260200191505060405180910390f35b34801561021457600080fd5b50610253600480360381019080803573ffffffffffffffffffffffffffffffffffffffff169060200190929190803590602001909291905050506109bd565b005b34801561026157600080fd5b5061028060048036038101908080359060200190929190505050610b02565b604051808060200180602001848152602001838103835286818151815260200191508051906020019080838360005b838110156102ca5780820151818401526020810190506102af565b50505050905090810190601f1680156102f75780820380516001836020036101000a031916815260200191505b50838103825285818151815260200191508051906020019080838360005b83811015610330578082015181840152602081019050610315565b50505050905090810190601f16801561035d5780820380516001836020036101000a031916815260200191505b509550505050505060405180910390f35b34801561037a57600080fd5b506103d9600480360381019080803573ffffffffffffffffffffffffffffffffffffffff169060200190929190803573ffffffffffffffffffffffffffffffffffffffff16906020019092919080359060200190929190505050610e4d565b005b6103f960048036038101908080359060200190929190505050610f1c565b005b34801561040757600080fd5b5061043060048036038101908080359060200190929190803590602001909291905050506110c4565b005b34801561043e57600080fd5b5061049d600480360381019080803573ffffffffffffffffffffffffffffffffffffffff169060200190929190803573ffffffffffffffffffffffffffffffffffffffff169060200190929190803590602001909291905050506111c3565b005b3480156104ab57600080fd5b506104ca600480360381019080803590602001909291905050506111e4565b604051808273ffffffffffffffffffffffffffffffffffffffff1673ffffffffffffffffffffffffffffffffffffffff16815260200191505060405180910390f35b34801561051857600080fd5b5061054d600480360381019080803573ffffffffffffffffffffffffffffffffffffffff169060200190929190505050611262565b6040518082815260200191505060405180910390f35b34801561056f57600080fd5b506106ec600480360381019080803590602001908201803590602001908080601f016020809104026020016040519081016040528093929190818152602001838380828437820191505050505050919291929080359060200190929190803590602001908201803590602001908080601f0160208091040260200160405190810160405280939291908181526020018383808284378201915050505050509192919290803590602001908201803590602001908080601f0160208091040260200160405190810160405280939291908181526020018383808284378201915050505050509192919290803590602001908201803590602001908080601f0160208091040260200160405190810160405280939291908181526020018383808284378201915050505050509192919290803590602001908201803590602001908080601f01602080910402602001604051908101604052809392919081815260200183838082843782019150505050505091929192905050506112e6565b005b3480156106fa57600080fd5b5061073b600480360381019080803573ffffffffffffffffffffffffffffffffffffffff16906020019092919080351515906020019092919050505061143b565b005b34801561074957600080fd5b506107ee600480360381019080803573ffffffffffffffffffffffffffffffffffffffff169060200190929190803573ffffffffffffffffffffffffffffffffffffffff16906020019092919080359060200190929190803590602001908201803590602001908080601f0160208091040260200160405190810160405280939291908181526020018383808284378201915050505050509192919290505050611577565b005b3480156107fc57600080fd5b5061081b6004803603810190808035906020019092919050505061159f565b6040518082815260200191505060405180910390f35b34801561083d57600080fd5b50610892600480360381019080803573ffffffffffffffffffffffffffffffffffffffff169060200190929190803573ffffffffffffffffffffffffffffffffffffffff1690602001909291905050506115c2565b604051808215151515815260200191505060405180910390f35b3480156108b857600080fd5b506108d760048036038101908080359060200190929190505050611656565b6040518082815260200191505060405180910390f35b6000806000837bffffffffffffffffffffffffffffffffffffffffffffffffffffffff19167bffffffffffffffffffffffffffffffffffffffffffffffffffffffff1916815260200190815260200160002060009054906101000a900460ff169050919050565b60076020528060005260406000206000915090505481565b600061097782611679565b151561098257600080fd5b6002600083815260200190815260200160002060009054906101000a900473ffffffffffffffffffffffffffffffffffffffff169050919050565b60006109c8826111e4565b90508073ffffffffffffffffffffffffffffffffffffffff168373ffffffffffffffffffffffffffffffffffffffff1614151515610a0557600080fd5b8073ffffffffffffffffffffffffffffffffffffffff163373ffffffffffffffffffffffffffffffffffffffff161480610a455750610a4481336115c2565b5b1515610a5057600080fd5b826002600084815260200190815260200160002060006101000a81548173ffffffffffffffffffffffffffffffffffffffff021916908373ffffffffffffffffffffffffffffffffffffffff160217905550818373ffffffffffffffffffffffffffffffffffffffff168273ffffffffffffffffffffffffffffffffffffffff167f8c5be1e5ebec7d5bd14f71427d1e84f3dd0314c0f7b2291e5b200ac8c7c3b92560405160405180910390a4505050565b6005602052806000526040600020600091509050806000018054600181600116156101000203166002900480601f016020809104026020016040519081016040528092919081815260200182805460018160011615610100020316600290048015610bae5780601f10610b8357610100808354040283529160200191610bae565b820191906000526020600020905b815481529060010190602001808311610b9157829003601f168201915b505050505090806001018054600181600116156101000203166002900480601f016020809104026020016040519081016040528092919081815260200182805460018160011615610100020316600290048015610c4c5780601f10610c2157610100808354040283529160200191610c4c565b820191906000526020600020905b815481529060010190602001808311610c2f57829003601f168201915b5050505050908060020160606040519081016040529081600082018054600181600116156101000203166002900480601f016020809104026020016040519081016040528092919081815260200182805460018160011615610100020316600290048015610cfb5780601f10610cd057610100808354040283529160200191610cfb565b820191906000526020600020905b815481529060010190602001808311610cde57829003601f168201915b50505050508152602001600182018054600181600116156101000203166002900480601f016020809104026020016040519081016040528092919081815260200182805460018160011615610100020316600290048015610d9d5780601f10610d7257610100808354040283529160200191610d9d565b820191906000526020600020905b815481529060010190602001808311610d8057829003601f168201915b50505050508152602001600282018054600181600116156101000203166002900480601f016020809104026020016040519081016040528092919081815260200182805460018160011615610100020316600290048015610e3f5780601f10610e1457610100808354040283529160200191610e3f565b820191906000526020600020905b815481529060010190602001808311610e2257829003601f168201915b505050505081525050905083565b610e5733826116eb565b1515610e6257600080fd5b600073ffffffffffffffffffffffffffffffffffffffff168273ffffffffffffffffffffffffffffffffffffffff1614151515610e9e57600080fd5b610ea88382611780565b610eb28382611883565b610ebc82826119b2565b808273ffffffffffffffffffffffffffffffffffffffff168473ffffffffffffffffffffffffffffffffffffffff167fddf252ad1be2c89b69c2b068fc378daa952ba7f163c4a11628f55a4df523b3ef60405160405180910390a4505050565b60008060006007600085815260200190815260200160002054111515610f4157600080fd5b600760008481526020019081526020016000205491503073ffffffffffffffffffffffffffffffffffffffff16636352211e846040518263ffffffff167c010000000000000000000000000000000000000000000000000000000002815260040180828152602001915050602060405180830381600087803b158015610fc657600080fd5b505af1158015610fda573d6000803e3d6000fd5b505050506040513d6020811015610ff057600080fd5b8101908080519060200190929190505050905081341015151561101257600080fd5b61101c8184611883565b61102633846119b2565b8073ffffffffffffffffffffffffffffffffffffffff166108fc839081150290604051600060405180830381858888f1935050505015801561106c573d6000803e3d6000fd5b50813411156110bf573373ffffffffffffffffffffffffffffffffffffffff166108fc8334039081150290604051600060405180830381858888f193505050501580156110bd573d6000803e3d6000fd5b505b505050565b3373ffffffffffffffffffffffffffffffffffffffff163073ffffffffffffffffffffffffffffffffffffffff16636352211e846040518263ffffffff167c010000000000000000000000000000000000000000000000000000000002815260040180828152602001915050602060405180830381600087803b15801561114a57600080fd5b505af115801561115e573d6000803e3d6000fd5b505050506040513d602081101561117457600080fd5b810190808051906020019092919050505073ffffffffffffffffffffffffffffffffffffffff161415156111a757600080fd5b8060076000848152602001908152602001600020819055505050565b6111df8383836020604051908101604052806000815250611577565b505050565b6000806001600084815260200190815260200160002060009054906101000a900473ffffffffffffffffffffffffffffffffffffffff169050600073ffffffffffffffffffffffffffffffffffffffff168173ffffffffffffffffffffffffffffffffffffffff161415151561125957600080fd5b80915050919050565b60008073ffffffffffffffffffffffffffffffffffffffff168273ffffffffffffffffffffffffffffffffffffffff161415151561129f57600080fd5b600360008373ffffffffffffffffffffffffffffffffffffffff1673ffffffffffffffffffffffffffffffffffffffff168152602001908152602001600020549050919050565b6112ee61218f565b6112f66121b1565b611301868686611b0c565b151561130c57600080fd5b606060405190810160405280878152602001868152602001858152509150606060405190810160405280898152602001848152602001838152509050806005600089815260200190815260200160002060008201518160000190805190602001906113789291906121d9565b5060208201518160010190805190602001906113959291906121d9565b5060408201518160020160008201518160000190805190602001906113bb9291906121d9565b5060208201518160010190805190602001906113d89291906121d9565b5060408201518160020190805190602001906113f59291906121d9565b50505090505060068790806001815401808255809150509060018203906000526020600020016000909192909190915055506114313388611d84565b5050505050505050565b3373ffffffffffffffffffffffffffffffffffffffff168273ffffffffffffffffffffffffffffffffffffffff161415151561147657600080fd5b80600460003373ffffffffffffffffffffffffffffffffffffffff1673ffffffffffffffffffffffffffffffffffffffff16815260200190815260200160002060008473ffffffffffffffffffffffffffffffffffffffff1673ffffffffffffffffffffffffffffffffffffffff16815260200190815260200160002060006101000a81548160ff0219169083151502179055508173ffffffffffffffffffffffffffffffffffffffff163373ffffffffffffffffffffffffffffffffffffffff167f17307eab39ab6107e8899845ad3d59bd9653f200f220920489ca2b5937696c3183604051808215151515815260200191505060405180910390a35050565b611582848484610e4d565b61158e84848484611e2a565b151561159957600080fd5b50505050565b6006818154811015156115ae57fe5b906000526020600020016000915090505481565b6000600460008473ffffffffffffffffffffffffffffffffffffffff1673ffffffffffffffffffffffffffffffffffffffff16815260200190815260200160002060008373ffffffffffffffffffffffffffffffffffffffff1673ffffffffffffffffffffffffffffffffffffffff16815260200190815260200160002060009054906101000a900460ff16905092915050565b60088181548110151561166557fe5b906000526020600020016000915090505481565b6000806001600084815260200190815260200160002060009054906101000a900473ffffffffffffffffffffffffffffffffffffffff169050600073ffffffffffffffffffffffffffffffffffffffff168173ffffffffffffffffffffffffffffffffffffffff161415915050919050565b6000806116f7836111e4565b90508073ffffffffffffffffffffffffffffffffffffffff168473ffffffffffffffffffffffffffffffffffffffff16148061176657508373ffffffffffffffffffffffffffffffffffffffff1661174e8461096c565b73ffffffffffffffffffffffffffffffffffffffff16145b80611777575061177681856115c2565b5b91505092915050565b8173ffffffffffffffffffffffffffffffffffffffff166117a0826111e4565b73ffffffffffffffffffffffffffffffffffffffff161415156117c257600080fd5b600073ffffffffffffffffffffffffffffffffffffffff166002600083815260200190815260200160002060009054906101000a900473ffffffffffffffffffffffffffffffffffffffff1673ffffffffffffffffffffffffffffffffffffffff1614151561187f5760006002600083815260200190815260200160002060006101000a81548173ffffffffffffffffffffffffffffffffffffffff021916908373ffffffffffffffffffffffffffffffffffffffff1602179055505b5050565b8173ffffffffffffffffffffffffffffffffffffffff166118a3826111e4565b73ffffffffffffffffffffffffffffffffffffffff161415156118c557600080fd5b6119186001600360008573ffffffffffffffffffffffffffffffffffffffff1673ffffffffffffffffffffffffffffffffffffffff1681526020019081526020016000205461204c90919063ffffffff16565b600360008473ffffffffffffffffffffffffffffffffffffffff1673ffffffffffffffffffffffffffffffffffffffff1681526020019081526020016000208190555060006001600083815260200190815260200160002060006101000a81548173ffffffffffffffffffffffffffffffffffffffff021916908373ffffffffffffffffffffffffffffffffffffffff1602179055505050565b600073ffffffffffffffffffffffffffffffffffffffff166001600083815260200190815260200160002060009054906101000a900473ffffffffffffffffffffffffffffffffffffffff1673ffffffffffffffffffffffffffffffffffffffff16141515611a2057600080fd5b816001600083815260200190815260200160002060006101000a81548173ffffffffffffffffffffffffffffffffffffffff021916908373ffffffffffffffffffffffffffffffffffffffff160217905550611ac56001600360008573ffffffffffffffffffffffffffffffffffffffff1673ffffffffffffffffffffffffffffffffffffffff1681526020019081526020016000205461206d90919063ffffffff16565b600360008473ffffffffffffffffffffffffffffffffffffffff1673ffffffffffffffffffffffffffffffffffffffff168152602001908152602001600020819055505050565b600080600080600092505b600680549050831015611d755760056000600685815481101515611b3757fe5b906000526020600020015481526020019081526020016000209150816002019050611bfe816000018054600181600116156101000203166002900480601f016020809104026020016040519081016040528092919081815260200182805460018160011615610100020316600290048015611bf35780601f10611bc857610100808354040283529160200191611bf3565b820191906000526020600020905b815481529060010190602001808311611bd657829003601f168201915b50505050508861208e565b8015611cac5750611cab816001018054600181600116156101000203166002900480601f016020809104026020016040519081016040528092919081815260200182805460018160011615610100020316600290048015611ca05780601f10611c7557610100808354040283529160200191611ca0565b820191906000526020600020905b815481529060010190602001808311611c8357829003601f168201915b50505050508761208e565b5b8015611d5a5750611d59816002018054600181600116156101000203166002900480601f016020809104026020016040519081016040528092919081815260200182805460018160011615610100020316600290048015611d4e5780601f10611d2357610100808354040283529160200191611d4e565b820191906000526020600020905b815481529060010190602001808311611d3157829003601f168201915b50505050508661208e565b5b15611d685760009350611d7a565b8280600101935050611b17565b600193505b5050509392505050565b600073ffffffffffffffffffffffffffffffffffffffff168273ffffffffffffffffffffffffffffffffffffffff1614151515611dc057600080fd5b611dca82826119b2565b808273ffffffffffffffffffffffffffffffffffffffff16600073ffffffffffffffffffffffffffffffffffffffff167fddf252ad1be2c89b69c2b068fc378daa952ba7f163c4a11628f55a4df523b3ef60405160405180910390a45050565b600080611e4c8573ffffffffffffffffffffffffffffffffffffffff1661217c565b1515611e5b5760019150612043565b8473ffffffffffffffffffffffffffffffffffffffff1663150b7a02338887876040518563ffffffff167c0100000000000000000000000000000000000000000000000000000000028152600401808573ffffffffffffffffffffffffffffffffffffffff1673ffffffffffffffffffffffffffffffffffffffff1681526020018473ffffffffffffffffffffffffffffffffffffffff1673ffffffffffffffffffffffffffffffffffffffff16815260200183815260200180602001828103825283818151815260200191508051906020019080838360005b83811015611f50578082015181840152602081019050611f35565b50505050905090810190601f168015611f7d5780820380516001836020036101000a031916815260200191505b5095505050505050602060405180830381600087803b158015611f9f57600080fd5b505af1158015611fb3573d6000803e3d6000fd5b505050506040513d6020811015611fc957600080fd5b8101908080519060200190929190505050905063150b7a027c0100000000000000000000000000000000000000000000000000000000027bffffffffffffffffffffffffffffffffffffffffffffffffffffffff1916817bffffffffffffffffffffffffffffffffffffffffffffffffffffffff19161491505b50949350505050565b60008083831115151561205e57600080fd5b82840390508091505092915050565b600080828401905083811015151561208457600080fd5b8091505092915050565b6000815183511415156120a45760009050612176565b816040518082805190602001908083835b6020831015156120da57805182526020820191506020810190506020830392506120b5565b6001836020036101000a038019825116818451168082178552505050505050905001915050604051809103902060001916836040518082805190602001908083835b602083101515612141578051825260208201915060208101905060208303925061211c565b6001836020036101000a0380198251168184511680821785525050505050509050019150506040518091039020600019161490505b92915050565b600080823b905060008111915050919050565b6060604051908101604052806060815260200160608152602001606081525090565b60a06040519081016040528060608152602001606081526020016121d3612259565b81525090565b828054600181600116156101000203166002900490600052602060002090601f016020900481019282601f1061221a57805160ff1916838001178555612248565b82800160010185558215612248579182015b8281111561224757825182559160200191906001019061222c565b5b509050612255919061227b565b5090565b6060604051908101604052806060815260200160608152602001606081525090565b61229d91905b80821115612299576000816000905550600101612281565b5090565b905600a165627a7a723058208a3cbe082867db03d65e15d1636ac9d41db010c0e55e46186c6570de63355ba40029",
  "source": "pragma solidity ^0.4.23;\n\nimport 'openzeppelin-solidity/contracts/token/ERC721/ERC721.sol';\n\ncontract StarNotary is ERC721 { \n\n    \n\n    struct Star { \n        string name; \n        string story;\n        Coordinators coords;\n    }\n\n    struct Coordinators {\n        string dec;\n        string mag;\n        string cent;\n    }\n\n    mapping(uint256 => Star) public tokenIdToStarInfo; \n    uint256[] public allStars;\n    mapping(uint256 => uint256) public starsForSale;\n    uint256[] public starsAvailable;\n\n\n    function createStar(string _name, uint256 _tokenId, string dec, string mag, string cent, string story) public { \n        require(uniqueCoords(dec, mag, cent));\n\n        Coordinators memory coords = Coordinators(dec, mag, cent);\n\n        Star memory newStar = Star(_name, story, coords);\n\n        tokenIdToStarInfo[_tokenId] = newStar;\n        allStars.push(_tokenId);\n\n        _mint(msg.sender, _tokenId);\n    }\n\n\n    function uniqueCoords(string dec, string mag, string cent) private returns (bool) {\n        for(uint i=0; i<allStars.length; i++){\n            Star next = tokenIdToStarInfo[allStars[i]];\n            Coordinators nextCoords = next.coords;\n            if(equal(nextCoords.dec, dec) && equal(nextCoords.mag, mag) && equal(nextCoords.cent, cent)){\n                return false;\n            }\n        }\n\n        return true;\n    }\n\n    function equal(string a, string b) private returns(bool) {\n        if(bytes(a).length != bytes(b).length) {\n            return false;\n        }else {\n            return keccak256(a) == keccak256(b);\n        }\n    }\n\n\n\n    function putStarUpForSale(uint256 _tokenId, uint256 _price) public { \n        require(this.ownerOf(_tokenId) == msg.sender);\n\n        starsForSale[_tokenId] = _price;\n    }\n\n    function buyStar(uint256 _tokenId) public payable { \n        require(starsForSale[_tokenId] > 0);\n        \n        uint256 starCost = starsForSale[_tokenId];\n        address starOwner = this.ownerOf(_tokenId);\n        require(msg.value >= starCost);\n\n        _removeTokenFrom(starOwner, _tokenId);\n        _addTokenTo(msg.sender, _tokenId);\n        \n        starOwner.transfer(starCost);\n\n        if(msg.value > starCost) { \n            msg.sender.transfer(msg.value - starCost);\n        }\n    }\n}",
  "sourcePath": "K:\\code\\project-5\\Project 5 - starter code\\Project 5 - Boilerplate with Zeppelin\\smart_contracts\\contracts\\StarNotary.sol",
  "compiler": {
    "name": "solc",
    "version": "0.4.24+commit.e67f0147.Emscripten.clang"
  },
  "schemaVersion": "2.0.1",
  "updatedAt": "2018-09-23T22:31:35.475Z"
}