{
  "contractName": "StarNotary",
  "abi": [
    {
      "constant": true,
      "inputs": [
        {
          "name": "interfaceId",
          "type": "bytes4"
        }
      ],
      "name": "supportsInterface",
      "outputs": [
        {
          "name": "",
          "type": "bool"
        }
      ],
      "payable": false,
      "stateMutability": "view",
      "type": "function"
    },
    {
      "constant": true,
      "inputs": [
        {
          "name": "",
          "type": "uint256"
        }
      ],
      "name": "starsForSale",
      "outputs": [
        {
          "name": "",
          "type": "uint256"
        }
      ],
      "payable": false,
      "stateMutability": "view",
      "type": "function"
    },
    {
      "constant": true,
      "inputs": [
        {
          "name": "tokenId",
          "type": "uint256"
        }
      ],
      "name": "getApproved",
      "outputs": [
        {
          "name": "",
          "type": "address"
        }
      ],
      "payable": false,
      "stateMutability": "view",
      "type": "function"
    },
    {
      "constant": false,
      "inputs": [
        {
          "name": "to",
          "type": "address"
        },
        {
          "name": "tokenId",
          "type": "uint256"
        }
      ],
      "name": "approve",
      "outputs": [],
      "payable": false,
      "stateMutability": "nonpayable",
      "type": "function"
    },
    {
      "constant": false,
      "inputs": [
        {
          "name": "from",
          "type": "address"
        },
        {
          "name": "to",
          "type": "address"
        },
        {
          "name": "tokenId",
          "type": "uint256"
        }
      ],
      "name": "transferFrom",
      "outputs": [],
      "payable": false,
      "stateMutability": "nonpayable",
      "type": "function"
    },
    {
      "constant": true,
      "inputs": [
        {
          "name": "",
          "type": "uint256"
        }
      ],
      "name": "tokenIdToStar",
      "outputs": [
        {
          "name": "name",
          "type": "string"
        },
        {
          "name": "story",
          "type": "string"
        }
      ],
      "payable": false,
      "stateMutability": "view",
      "type": "function"
    },
    {
      "constant": false,
      "inputs": [
        {
          "name": "from",
          "type": "address"
        },
        {
          "name": "to",
          "type": "address"
        },
        {
          "name": "tokenId",
          "type": "uint256"
        }
      ],
      "name": "safeTransferFrom",
      "outputs": [],
      "payable": false,
      "stateMutability": "nonpayable",
      "type": "function"
    },
    {
      "constant": true,
      "inputs": [
        {
          "name": "tokenId",
          "type": "uint256"
        }
      ],
      "name": "ownerOf",
      "outputs": [
        {
          "name": "",
          "type": "address"
        }
      ],
      "payable": false,
      "stateMutability": "view",
      "type": "function"
    },
    {
      "constant": true,
      "inputs": [
        {
          "name": "",
          "type": "uint256"
        }
      ],
      "name": "tokenIdToOwners",
      "outputs": [
        {
          "name": "",
          "type": "address"
        }
      ],
      "payable": false,
      "stateMutability": "view",
      "type": "function"
    },
    {
      "constant": true,
      "inputs": [
        {
          "name": "owner",
          "type": "address"
        }
      ],
      "name": "balanceOf",
      "outputs": [
        {
          "name": "",
          "type": "uint256"
        }
      ],
      "payable": false,
      "stateMutability": "view",
      "type": "function"
    },
    {
      "constant": false,
      "inputs": [
        {
          "name": "to",
          "type": "address"
        },
        {
          "name": "approved",
          "type": "bool"
        }
      ],
      "name": "setApprovalForAll",
      "outputs": [],
      "payable": false,
      "stateMutability": "nonpayable",
      "type": "function"
    },
    {
      "constant": true,
      "inputs": [
        {
          "name": "",
          "type": "uint256"
        }
      ],
      "name": "tokenIdToCoordinates",
      "outputs": [
        {
          "name": "dec",
          "type": "string"
        },
        {
          "name": "mag",
          "type": "string"
        },
        {
          "name": "cent",
          "type": "string"
        }
      ],
      "payable": false,
      "stateMutability": "view",
      "type": "function"
    },
    {
      "constant": false,
      "inputs": [
        {
          "name": "from",
          "type": "address"
        },
        {
          "name": "to",
          "type": "address"
        },
        {
          "name": "tokenId",
          "type": "uint256"
        },
        {
          "name": "_data",
          "type": "bytes"
        }
      ],
      "name": "safeTransferFrom",
      "outputs": [],
      "payable": false,
      "stateMutability": "nonpayable",
      "type": "function"
    },
    {
      "constant": true,
      "inputs": [
        {
          "name": "",
          "type": "uint256"
        }
      ],
      "name": "allStars",
      "outputs": [
        {
          "name": "",
          "type": "uint256"
        }
      ],
      "payable": false,
      "stateMutability": "view",
      "type": "function"
    },
    {
      "constant": true,
      "inputs": [
        {
          "name": "owner",
          "type": "address"
        },
        {
          "name": "operator",
          "type": "address"
        }
      ],
      "name": "isApprovedForAll",
      "outputs": [
        {
          "name": "",
          "type": "bool"
        }
      ],
      "payable": false,
      "stateMutability": "view",
      "type": "function"
    },
    {
      "constant": true,
      "inputs": [
        {
          "name": "",
          "type": "uint256"
        }
      ],
      "name": "starsAvailable",
      "outputs": [
        {
          "name": "",
          "type": "uint256"
        }
      ],
      "payable": false,
      "stateMutability": "view",
      "type": "function"
    },
    {
      "anonymous": false,
      "inputs": [
        {
          "indexed": true,
          "name": "from",
          "type": "address"
        },
        {
          "indexed": true,
          "name": "to",
          "type": "address"
        },
        {
          "indexed": true,
          "name": "tokenId",
          "type": "uint256"
        }
      ],
      "name": "Transfer",
      "type": "event"
    },
    {
      "anonymous": false,
      "inputs": [
        {
          "indexed": true,
          "name": "owner",
          "type": "address"
        },
        {
          "indexed": true,
          "name": "approved",
          "type": "address"
        },
        {
          "indexed": true,
          "name": "tokenId",
          "type": "uint256"
        }
      ],
      "name": "Approval",
      "type": "event"
    },
    {
      "anonymous": false,
      "inputs": [
        {
          "indexed": true,
          "name": "owner",
          "type": "address"
        },
        {
          "indexed": true,
          "name": "operator",
          "type": "address"
        },
        {
          "indexed": false,
          "name": "approved",
          "type": "bool"
        }
      ],
      "name": "ApprovalForAll",
      "type": "event"
    },
    {
      "constant": false,
      "inputs": [
        {
          "name": "_name",
          "type": "string"
        },
        {
          "name": "_tokenId",
          "type": "uint256"
        },
        {
          "name": "dec",
          "type": "string"
        },
        {
          "name": "mag",
          "type": "string"
        },
        {
          "name": "cent",
          "type": "string"
        },
        {
          "name": "story",
          "type": "string"
        }
      ],
      "name": "createStar",
      "outputs": [],
      "payable": false,
      "stateMutability": "nonpayable",
      "type": "function"
    },
    {
      "constant": false,
      "inputs": [
        {
          "name": "_tokenId",
          "type": "uint256"
        },
        {
          "name": "_price",
          "type": "uint256"
        }
      ],
      "name": "putStarUpForSale",
      "outputs": [],
      "payable": false,
      "stateMutability": "nonpayable",
      "type": "function"
    },
    {
      "constant": false,
      "inputs": [
        {
          "name": "_tokenId",
          "type": "uint256"
        }
      ],
      "name": "buyStar",
      "outputs": [],
      "payable": true,
      "stateMutability": "payable",
      "type": "function"
    },
    {
      "constant": false,
      "inputs": [
        {
          "name": "_tokenId",
          "type": "uint256"
        }
      ],
      "name": "tokenIdToStarInfo",
      "outputs": [
        {
          "name": "",
          "type": "string"
        },
        {
          "name": "",
          "type": "string"
        },
        {
          "name": "",
          "type": "string"
        },
        {
          "name": "",
          "type": "string"
        },
        {
          "name": "",
          "type": "string"
        }
      ],
      "payable": false,
      "stateMutability": "nonpayable",
      "type": "function"
    }
  ],
  "bytecode": "0x6080604052620000416301ffc9a77c01000000000000000000000000000000000000000000000000000000000262000084640100000000026401000000009004565b6200007e6380ac58cd7c01000000000000000000000000000000000000000000000000000000000262000084640100000000026401000000009004565b62000142565b63ffffffff7c010000000000000000000000000000000000000000000000000000000002817bffffffffffffffffffffffffffffffffffffffffffffffffffffffff191614151515620000d657600080fd5b6001600080837bffffffffffffffffffffffffffffffffffffffffffffffffffffffff19167bffffffffffffffffffffffffffffffffffffffffffffffffffffffff1916815260200190815260200160002060006101000a81548160ff02191690831515021790555050565b612ae380620001526000396000f300608060405260043610610112576000357c0100000000000000000000000000000000000000000000000000000000900463ffffffff16806301ffc9a7146101175780630564b1301461017b578063081812fc146101bc578063095ea7b3146102295780631967fd981461027657806323b872dd146104cc578063267d9ae1146105395780632f1c34ef1461064b578063316a43611461066b57806342842e0e146106a25780636352211e1461070f5780636cf964b61461077c57806370a08231146107e95780638583d57c14610840578063a22cb465146109cb578063ac09a39814610a1a578063b88d4fde14610b98578063c2ce25ca14610c4b578063e985e9c514610c8c578063eee3e95114610d07575b600080fd5b34801561012357600080fd5b5061016160048036038101908080357bffffffffffffffffffffffffffffffffffffffffffffffffffffffff19169060200190929190505050610d48565b604051808215151515815260200191505060405180910390f35b34801561018757600080fd5b506101a660048036038101908080359060200190929190505050610daf565b6040518082815260200191505060405180910390f35b3480156101c857600080fd5b506101e760048036038101908080359060200190929190505050610dc7565b604051808273ffffffffffffffffffffffffffffffffffffffff1673ffffffffffffffffffffffffffffffffffffffff16815260200191505060405180910390f35b34801561023557600080fd5b50610274600480360381019080803573ffffffffffffffffffffffffffffffffffffffff16906020019092919080359060200190929190505050610e18565b005b34801561028257600080fd5b506102a160048036038101908080359060200190929190505050610f5d565b60405180806020018060200180602001806020018060200186810386528b818151815260200191508051906020019080838360005b838110156102f15780820151818401526020810190506102d6565b50505050905090810190601f16801561031e5780820380516001836020036101000a031916815260200191505b5086810385528a818151815260200191508051906020019080838360005b8381101561035757808201518184015260208101905061033c565b50505050905090810190601f1680156103845780820380516001836020036101000a031916815260200191505b50868103845289818151815260200191508051906020019080838360005b838110156103bd5780820151818401526020810190506103a2565b50505050905090810190601f1680156103ea5780820380516001836020036101000a031916815260200191505b50868103835288818151815260200191508051906020019080838360005b83811015610423578082015181840152602081019050610408565b50505050905090810190601f1680156104505780820380516001836020036101000a031916815260200191505b50868103825287818151815260200191508051906020019080838360005b8381101561048957808201518184015260208101905061046e565b50505050905090810190601f1680156104b65780820380516001836020036101000a031916815260200191505b509a505050505050505050505060405180910390f35b3480156104d857600080fd5b50610537600480360381019080803573ffffffffffffffffffffffffffffffffffffffff169060200190929190803573ffffffffffffffffffffffffffffffffffffffff169060200190929190803590602001909291905050506112c7565b005b34801561054557600080fd5b5061056460048036038101908080359060200190929190505050611396565b604051808060200180602001838103835285818151815260200191508051906020019080838360005b838110156105a857808201518184015260208101905061058d565b50505050905090810190601f1680156105d55780820380516001836020036101000a031916815260200191505b50838103825284818151815260200191508051906020019080838360005b8381101561060e5780820151818401526020810190506105f3565b50505050905090810190601f16801561063b5780820380516001836020036101000a031916815260200191505b5094505050505060405180910390f35b610669600480360381019080803590602001909291905050506114ea565b005b34801561067757600080fd5b506106a06004803603810190808035906020019092919080359060200190929190505050611692565b005b3480156106ae57600080fd5b5061070d600480360381019080803573ffffffffffffffffffffffffffffffffffffffff169060200190929190803573ffffffffffffffffffffffffffffffffffffffff16906020019092919080359060200190929190505050611791565b005b34801561071b57600080fd5b5061073a600480360381019080803590602001909291905050506117b2565b604051808273ffffffffffffffffffffffffffffffffffffffff1673ffffffffffffffffffffffffffffffffffffffff16815260200191505060405180910390f35b34801561078857600080fd5b506107a760048036038101908080359060200190929190505050611830565b604051808273ffffffffffffffffffffffffffffffffffffffff1673ffffffffffffffffffffffffffffffffffffffff16815260200191505060405180910390f35b3480156107f557600080fd5b5061082a600480360381019080803573ffffffffffffffffffffffffffffffffffffffff169060200190929190505050611863565b6040518082815260200191505060405180910390f35b34801561084c57600080fd5b506109c9600480360381019080803590602001908201803590602001908080601f016020809104026020016040519081016040528093929190818152602001838380828437820191505050505050919291929080359060200190929190803590602001908201803590602001908080601f0160208091040260200160405190810160405280939291908181526020018383808284378201915050505050509192919290803590602001908201803590602001908080601f0160208091040260200160405190810160405280939291908181526020018383808284378201915050505050509192919290803590602001908201803590602001908080601f0160208091040260200160405190810160405280939291908181526020018383808284378201915050505050509192919290803590602001908201803590602001908080601f01602080910402602001604051908101604052809392919081815260200183838082843782019150505050505091929192905050506118e7565b005b3480156109d757600080fd5b50610a18600480360381019080803573ffffffffffffffffffffffffffffffffffffffff169060200190929190803515159060200190929190505050611a93565b005b348015610a2657600080fd5b50610a4560048036038101908080359060200190929190505050611bcf565b60405180806020018060200180602001848103845287818151815260200191508051906020019080838360005b83811015610a8d578082015181840152602081019050610a72565b50505050905090810190601f168015610aba5780820380516001836020036101000a031916815260200191505b50848103835286818151815260200191508051906020019080838360005b83811015610af3578082015181840152602081019050610ad8565b50505050905090810190601f168015610b205780820380516001836020036101000a031916815260200191505b50848103825285818151815260200191508051906020019080838360005b83811015610b59578082015181840152602081019050610b3e565b50505050905090810190601f168015610b865780820380516001836020036101000a031916815260200191505b50965050505050505060405180910390f35b348015610ba457600080fd5b50610c49600480360381019080803573ffffffffffffffffffffffffffffffffffffffff169060200190929190803573ffffffffffffffffffffffffffffffffffffffff16906020019092919080359060200190929190803590602001908201803590602001908080601f0160208091040260200160405190810160405280939291908181526020018383808284378201915050505050509192919290505050611dc1565b005b348015610c5757600080fd5b50610c7660048036038101908080359060200190929190505050611de9565b6040518082815260200191505060405180910390f35b348015610c9857600080fd5b50610ced600480360381019080803573ffffffffffffffffffffffffffffffffffffffff169060200190929190803573ffffffffffffffffffffffffffffffffffffffff169060200190929190505050611e0c565b604051808215151515815260200191505060405180910390f35b348015610d1357600080fd5b50610d3260048036038101908080359060200190929190505050611ea0565b6040518082815260200191505060405180910390f35b6000806000837bffffffffffffffffffffffffffffffffffffffffffffffffffffffff19167bffffffffffffffffffffffffffffffffffffffffffffffffffffffff1916815260200190815260200160002060009054906101000a900460ff169050919050565b60076020528060005260406000206000915090505481565b6000610dd282611ec3565b1515610ddd57600080fd5b6002600083815260200190815260200160002060009054906101000a900473ffffffffffffffffffffffffffffffffffffffff169050919050565b6000610e23826117b2565b90508073ffffffffffffffffffffffffffffffffffffffff168373ffffffffffffffffffffffffffffffffffffffff1614151515610e6057600080fd5b8073ffffffffffffffffffffffffffffffffffffffff163373ffffffffffffffffffffffffffffffffffffffff161480610ea05750610e9f8133611e0c565b5b1515610eab57600080fd5b826002600084815260200190815260200160002060006101000a81548173ffffffffffffffffffffffffffffffffffffffff021916908373ffffffffffffffffffffffffffffffffffffffff160217905550818373ffffffffffffffffffffffffffffffffffffffff168273ffffffffffffffffffffffffffffffffffffffff167f8c5be1e5ebec7d5bd14f71427d1e84f3dd0314c0f7b2291e5b200ac8c7c3b92560405160405180910390a4505050565b60608060608060606000806005600089815260200190815260200160002091506009600089815260200190815260200160002090508160000182600101826002018360000184600101848054600181600116156101000203166002900480601f01602080910402602001604051908101604052809291908181526020018280546001816001161561010002031660029004801561103b5780601f106110105761010080835404028352916020019161103b565b820191906000526020600020905b81548152906001019060200180831161101e57829003601f168201915b50505050509450838054600181600116156101000203166002900480601f0160208091040260200160405190810160405280929190818152602001828054600181600116156101000203166002900480156110d75780601f106110ac576101008083540402835291602001916110d7565b820191906000526020600020905b8154815290600101906020018083116110ba57829003601f168201915b50505050509350828054600181600116156101000203166002900480601f0160208091040260200160405190810160405280929190818152602001828054600181600116156101000203166002900480156111735780601f1061114857610100808354040283529160200191611173565b820191906000526020600020905b81548152906001019060200180831161115657829003601f168201915b50505050509250818054600181600116156101000203166002900480601f01602080910402602001604051908101604052809291908181526020018280546001816001161561010002031660029004801561120f5780601f106111e45761010080835404028352916020019161120f565b820191906000526020600020905b8154815290600101906020018083116111f257829003601f168201915b50505050509150808054600181600116156101000203166002900480601f0160208091040260200160405190810160405280929190818152602001828054600181600116156101000203166002900480156112ab5780601f10611280576101008083540402835291602001916112ab565b820191906000526020600020905b81548152906001019060200180831161128e57829003601f168201915b5050505050905096509650965096509650505091939590929450565b6112d13382611f35565b15156112dc57600080fd5b600073ffffffffffffffffffffffffffffffffffffffff168273ffffffffffffffffffffffffffffffffffffffff161415151561131857600080fd5b6113228382611fca565b61132c83826120cd565b61133682826121fc565b808273ffffffffffffffffffffffffffffffffffffffff168473ffffffffffffffffffffffffffffffffffffffff167fddf252ad1be2c89b69c2b068fc378daa952ba7f163c4a11628f55a4df523b3ef60405160405180910390a4505050565b6005602052806000526040600020600091509050806000018054600181600116156101000203166002900480601f0160208091040260200160405190810160405280929190818152602001828054600181600116156101000203166002900480156114425780601f1061141757610100808354040283529160200191611442565b820191906000526020600020905b81548152906001019060200180831161142557829003601f168201915b505050505090806001018054600181600116156101000203166002900480601f0160208091040260200160405190810160405280929190818152602001828054600181600116156101000203166002900480156114e05780601f106114b5576101008083540402835291602001916114e0565b820191906000526020600020905b8154815290600101906020018083116114c357829003601f168201915b5050505050905082565b6000806000600760008581526020019081526020016000205411151561150f57600080fd5b600760008481526020019081526020016000205491503073ffffffffffffffffffffffffffffffffffffffff16636352211e846040518263ffffffff167c010000000000000000000000000000000000000000000000000000000002815260040180828152602001915050602060405180830381600087803b15801561159457600080fd5b505af11580156115a8573d6000803e3d6000fd5b505050506040513d60208110156115be57600080fd5b810190808051906020019092919050505090508134101515156115e057600080fd5b6115ea81846120cd565b6115f433846121fc565b8073ffffffffffffffffffffffffffffffffffffffff166108fc839081150290604051600060405180830381858888f1935050505015801561163a573d6000803e3d6000fd5b508134111561168d573373ffffffffffffffffffffffffffffffffffffffff166108fc8334039081150290604051600060405180830381858888f1935050505015801561168b573d6000803e3d6000fd5b505b505050565b3373ffffffffffffffffffffffffffffffffffffffff163073ffffffffffffffffffffffffffffffffffffffff16636352211e846040518263ffffffff167c010000000000000000000000000000000000000000000000000000000002815260040180828152602001915050602060405180830381600087803b15801561171857600080fd5b505af115801561172c573d6000803e3d6000fd5b505050506040513d602081101561174257600080fd5b810190808051906020019092919050505073ffffffffffffffffffffffffffffffffffffffff1614151561177557600080fd5b8060076000848152602001908152602001600020819055505050565b6117ad8383836020604051908101604052806000815250611dc1565b505050565b6000806001600084815260200190815260200160002060009054906101000a900473ffffffffffffffffffffffffffffffffffffffff169050600073ffffffffffffffffffffffffffffffffffffffff168173ffffffffffffffffffffffffffffffffffffffff161415151561182757600080fd5b80915050919050565b600a6020528060005260406000206000915054906101000a900473ffffffffffffffffffffffffffffffffffffffff1681565b60008073ffffffffffffffffffffffffffffffffffffffff168273ffffffffffffffffffffffffffffffffffffffff16141515156118a057600080fd5b600360008373ffffffffffffffffffffffffffffffffffffffff1673ffffffffffffffffffffffffffffffffffffffff168152602001908152602001600020549050919050565b6118ef6129d6565b6118f76129f8565b611902868686612356565b151561190d57600080fd5b33600a600089815260200190815260200160002060006101000a81548173ffffffffffffffffffffffffffffffffffffffff021916908373ffffffffffffffffffffffffffffffffffffffff1602179055506060604051908101604052808781526020018681526020018581525091506040805190810160405280898152602001848152509050806005600089815260200190815260200160002060008201518160000190805190602001906119c4929190612a12565b5060208201518160010190805190602001906119e1929190612a12565b5090505081600960008981526020019081526020016000206000820151816000019080519060200190611a15929190612a12565b506020820151816001019080519060200190611a32929190612a12565b506040820151816002019080519060200190611a4f929190612a12565b509050506006879080600181540180825580915050906001820390600052602060002001600090919290919091505550611a8933886125cb565b5050505050505050565b3373ffffffffffffffffffffffffffffffffffffffff168273ffffffffffffffffffffffffffffffffffffffff1614151515611ace57600080fd5b80600460003373ffffffffffffffffffffffffffffffffffffffff1673ffffffffffffffffffffffffffffffffffffffff16815260200190815260200160002060008473ffffffffffffffffffffffffffffffffffffffff1673ffffffffffffffffffffffffffffffffffffffff16815260200190815260200160002060006101000a81548160ff0219169083151502179055508173ffffffffffffffffffffffffffffffffffffffff163373ffffffffffffffffffffffffffffffffffffffff167f17307eab39ab6107e8899845ad3d59bd9653f200f220920489ca2b5937696c3183604051808215151515815260200191505060405180910390a35050565b6009602052806000526040600020600091509050806000018054600181600116156101000203166002900480601f016020809104026020016040519081016040528092919081815260200182805460018160011615610100020316600290048015611c7b5780601f10611c5057610100808354040283529160200191611c7b565b820191906000526020600020905b815481529060010190602001808311611c5e57829003601f168201915b505050505090806001018054600181600116156101000203166002900480601f016020809104026020016040519081016040528092919081815260200182805460018160011615610100020316600290048015611d195780601f10611cee57610100808354040283529160200191611d19565b820191906000526020600020905b815481529060010190602001808311611cfc57829003601f168201915b505050505090806002018054600181600116156101000203166002900480601f016020809104026020016040519081016040528092919081815260200182805460018160011615610100020316600290048015611db75780601f10611d8c57610100808354040283529160200191611db7565b820191906000526020600020905b815481529060010190602001808311611d9a57829003601f168201915b5050505050905083565b611dcc8484846112c7565b611dd884848484612671565b1515611de357600080fd5b50505050565b600681815481101515611df857fe5b906000526020600020016000915090505481565b6000600460008473ffffffffffffffffffffffffffffffffffffffff1673ffffffffffffffffffffffffffffffffffffffff16815260200190815260200160002060008373ffffffffffffffffffffffffffffffffffffffff1673ffffffffffffffffffffffffffffffffffffffff16815260200190815260200160002060009054906101000a900460ff16905092915050565b600881815481101515611eaf57fe5b906000526020600020016000915090505481565b6000806001600084815260200190815260200160002060009054906101000a900473ffffffffffffffffffffffffffffffffffffffff169050600073ffffffffffffffffffffffffffffffffffffffff168173ffffffffffffffffffffffffffffffffffffffff161415915050919050565b600080611f41836117b2565b90508073ffffffffffffffffffffffffffffffffffffffff168473ffffffffffffffffffffffffffffffffffffffff161480611fb057508373ffffffffffffffffffffffffffffffffffffffff16611f9884610dc7565b73ffffffffffffffffffffffffffffffffffffffff16145b80611fc15750611fc08185611e0c565b5b91505092915050565b8173ffffffffffffffffffffffffffffffffffffffff16611fea826117b2565b73ffffffffffffffffffffffffffffffffffffffff1614151561200c57600080fd5b600073ffffffffffffffffffffffffffffffffffffffff166002600083815260200190815260200160002060009054906101000a900473ffffffffffffffffffffffffffffffffffffffff1673ffffffffffffffffffffffffffffffffffffffff161415156120c95760006002600083815260200190815260200160002060006101000a81548173ffffffffffffffffffffffffffffffffffffffff021916908373ffffffffffffffffffffffffffffffffffffffff1602179055505b5050565b8173ffffffffffffffffffffffffffffffffffffffff166120ed826117b2565b73ffffffffffffffffffffffffffffffffffffffff1614151561210f57600080fd5b6121626001600360008573ffffffffffffffffffffffffffffffffffffffff1673ffffffffffffffffffffffffffffffffffffffff1681526020019081526020016000205461289390919063ffffffff16565b600360008473ffffffffffffffffffffffffffffffffffffffff1673ffffffffffffffffffffffffffffffffffffffff1681526020019081526020016000208190555060006001600083815260200190815260200160002060006101000a81548173ffffffffffffffffffffffffffffffffffffffff021916908373ffffffffffffffffffffffffffffffffffffffff1602179055505050565b600073ffffffffffffffffffffffffffffffffffffffff166001600083815260200190815260200160002060009054906101000a900473ffffffffffffffffffffffffffffffffffffffff1673ffffffffffffffffffffffffffffffffffffffff1614151561226a57600080fd5b816001600083815260200190815260200160002060006101000a81548173ffffffffffffffffffffffffffffffffffffffff021916908373ffffffffffffffffffffffffffffffffffffffff16021790555061230f6001600360008573ffffffffffffffffffffffffffffffffffffffff1673ffffffffffffffffffffffffffffffffffffffff168152602001908152602001600020546128b490919063ffffffff16565b600360008473ffffffffffffffffffffffffffffffffffffffff1673ffffffffffffffffffffffffffffffffffffffff168152602001908152602001600020819055505050565b600080600080600092505b6006805490508310156125bc5760068381548110151561237d57fe5b90600052602060002001549150600960008381526020019081526020016000209050612445816000018054600181600116156101000203166002900480601f01602080910402602001604051908101604052809291908181526020018280546001816001161561010002031660029004801561243a5780601f1061240f5761010080835404028352916020019161243a565b820191906000526020600020905b81548152906001019060200180831161241d57829003601f168201915b5050505050886128d5565b80156124f357506124f2816001018054600181600116156101000203166002900480601f0160208091040260200160405190810160405280929190818152602001828054600181600116156101000203166002900480156124e75780601f106124bc576101008083540402835291602001916124e7565b820191906000526020600020905b8154815290600101906020018083116124ca57829003601f168201915b5050505050876128d5565b5b80156125a157506125a0816002018054600181600116156101000203166002900480601f0160208091040260200160405190810160405280929190818152602001828054600181600116156101000203166002900480156125955780601f1061256a57610100808354040283529160200191612595565b820191906000526020600020905b81548152906001019060200180831161257857829003601f168201915b5050505050866128d5565b5b156125af57600093506125c1565b8280600101935050612361565b600193505b5050509392505050565b600073ffffffffffffffffffffffffffffffffffffffff168273ffffffffffffffffffffffffffffffffffffffff161415151561260757600080fd5b61261182826121fc565b808273ffffffffffffffffffffffffffffffffffffffff16600073ffffffffffffffffffffffffffffffffffffffff167fddf252ad1be2c89b69c2b068fc378daa952ba7f163c4a11628f55a4df523b3ef60405160405180910390a45050565b6000806126938573ffffffffffffffffffffffffffffffffffffffff166129c3565b15156126a2576001915061288a565b8473ffffffffffffffffffffffffffffffffffffffff1663150b7a02338887876040518563ffffffff167c0100000000000000000000000000000000000000000000000000000000028152600401808573ffffffffffffffffffffffffffffffffffffffff1673ffffffffffffffffffffffffffffffffffffffff1681526020018473ffffffffffffffffffffffffffffffffffffffff1673ffffffffffffffffffffffffffffffffffffffff16815260200183815260200180602001828103825283818151815260200191508051906020019080838360005b8381101561279757808201518184015260208101905061277c565b50505050905090810190601f1680156127c45780820380516001836020036101000a031916815260200191505b5095505050505050602060405180830381600087803b1580156127e657600080fd5b505af11580156127fa573d6000803e3d6000fd5b505050506040513d602081101561281057600080fd5b8101908080519060200190929190505050905063150b7a027c0100000000000000000000000000000000000000000000000000000000027bffffffffffffffffffffffffffffffffffffffffffffffffffffffff1916817bffffffffffffffffffffffffffffffffffffffffffffffffffffffff19161491505b50949350505050565b6000808383111515156128a557600080fd5b82840390508091505092915050565b60008082840190508381101515156128cb57600080fd5b8091505092915050565b6000815183511415156128eb57600090506129bd565b816040518082805190602001908083835b60208310151561292157805182526020820191506020810190506020830392506128fc565b6001836020036101000a038019825116818451168082178552505050505050905001915050604051809103902060001916836040518082805190602001908083835b6020831015156129885780518252602082019150602081019050602083039250612963565b6001836020036101000a0380198251168184511680821785525050505050509050019150506040518091039020600019161490505b92915050565b600080823b905060008111915050919050565b6060604051908101604052806060815260200160608152602001606081525090565b604080519081016040528060608152602001606081525090565b828054600181600116156101000203166002900490600052602060002090601f016020900481019282601f10612a5357805160ff1916838001178555612a81565b82800160010185558215612a81579182015b82811115612a80578251825591602001919060010190612a65565b5b509050612a8e9190612a92565b5090565b612ab491905b80821115612ab0576000816000905550600101612a98565b5090565b905600a165627a7a72305820938dd2d049f649843267c2afad5fc1e8023f7fc2bacb0b6b8a18a4bba0e21bbd0029",
  "source": "pragma solidity ^0.4.23;\n\nimport 'openzeppelin-solidity/contracts/token/ERC721/ERC721.sol';\n\ncontract StarNotary is ERC721 { \n\n    \n\n    struct Star { \n        string name; \n        string story;\n    }\n\n    \n    struct Coordinators {\n        string dec;\n        string mag;\n        string cent;\n    }\n\n    mapping(uint256 => Star) public tokenIdToStar; \n    uint256[] public allStars;\n    mapping(uint256 => uint256) public starsForSale;\n    uint256[] public starsAvailable;\n    mapping(uint256 => Coordinators) public tokenIdToCoordinates;\n    mapping(uint256 => address) public tokenIdToOwners;\n\n    function createStar(string _name, uint256 _tokenId, string dec, string mag, string cent, string story) public { \n        require(checkIfStarExist(dec, mag, cent));\n\n        tokenIdToOwners[_tokenId] = msg.sender;\n\n        Coordinators memory coords = Coordinators(dec, mag, cent);\n\n        Star memory newStar = Star(_name, story);\n\n        tokenIdToStar[_tokenId] = newStar;\n        tokenIdToCoordinates[_tokenId] = coords;\n        allStars.push(_tokenId);\n\n        _mint(msg.sender, _tokenId);\n    }\n\n    function checkIfStarExist(string dec, string mag, string cent) private returns (bool) {\n        for(uint i = 0; i < allStars.length; i++){\n            uint256 next = allStars[i];\n            Coordinators coords = tokenIdToCoordinates[next];\n            if(equal(coords.dec, dec) && equal(coords.mag, mag) && equal(coords.cent, cent)){\n                return false;\n            }\n        }\n\n        return true;\n    }\n\n    function equal(string a, string b) private returns(bool) {\n        if(bytes(a).length != bytes(b).length) {\n            return false;\n        }else {\n            return keccak256(a) == keccak256(b);\n        }\n    }\n\n\n\n    function putStarUpForSale(uint256 _tokenId, uint256 _price) public { \n        require(this.ownerOf(_tokenId) == msg.sender);\n\n        starsForSale[_tokenId] = _price;\n    }\n\n    function buyStar(uint256 _tokenId) public payable { \n        require(starsForSale[_tokenId] > 0);\n        \n        uint256 starCost = starsForSale[_tokenId];\n        address starOwner = this.ownerOf(_tokenId);\n        require(msg.value >= starCost);\n\n        _removeTokenFrom(starOwner, _tokenId);\n        _addTokenTo(msg.sender, _tokenId);\n        \n        starOwner.transfer(starCost);\n\n        if(msg.value > starCost) { \n            msg.sender.transfer(msg.value - starCost);\n        }\n    }\n \n    function tokenIdToStarInfo(uint _tokenId) public returns (string, string, string, string, string) {\n        Star star = tokenIdToStar[_tokenId];\n        Coordinators coords = tokenIdToCoordinates[_tokenId];\n\n        return (star.name, star.story, coords.cent, coords.dec, coords.mag);\n\n\n    }\n\n    \n}",
  "sourcePath": "/Users/fboyd/Documents/projects/starnotary-project-5/smart_contracts/contracts/StarNotary.sol",
  "compiler": {
    "name": "solc",
    "version": "0.4.24+commit.e67f0147.Emscripten.clang"
  },
  "schemaVersion": "2.0.1",
  "updatedAt": "2018-09-24T19:17:26.868Z"
}